:100000000AC018951895189518951895189518956B
:100010001895189518958FED8DBFC8EBE0EA4E2E18
:10002000DD275D2EEEE7F0E0A0E6B0E088278D93B7
:100030003197E9F789E189B988E18AB966248FEFB8
:1000400081BB80E087BB80E090E0A0E68D939C932D
:1000500080E090E0A2E68D939C9380E090E0A4E69F
:100060008D939C9380E090E0A6E68D939C9380E036
:1000700090E0A8E68D939C9380E090E0AAE68D93B3
:100080009C9380E090E0ACE68D939C9380E090E0C0
:10009000AEE68D939C93949A84EF91E0D1D170E079
:1000A00072BBA6E30C9100FB81E00EF080E08F9321
:1000B000A0E60D911C91003050E0150781E009F099
:1000C00080E09F918923882309F40AC0949A86E4EA
:1000D00090E0A0E68D939C9388EE93E0B1D1949844
:1000E000A6E30C9101FB81E00EF080E08F93A2E685
:1000F0000D911C91003050E0150781E009F080E07F
:100100009F918923882309F40AC0949A86E490E099
:10011000A2E68D939C9388EE93E092D19498A6E307
:100120000C9102FB81E00EF080E08F93A4E60D912C
:100130001C91003050E0150781E009F080E09F91AC
:100140008923882309F40AC0949A86E490E0A4E6FF
:100150008D939C9388EE93E073D19498A6E30C91D1
:1001600003FB81E00EF080E08F93A6E60D911C91D9
:10017000003050E0150781E009F080E09F9189236D
:10018000882309F40AC0949A86E490E0A6E68D9349
:100190009C9388EE93E054D19498A6E30C9104FBD1
:1001A00081E00EF080E08F93A8E60D911C91003065
:1001B00050E0150781E009F080E09F9189238823B2
:1001C00009F40AC0949A86E490E0A8E68D939C9383
:1001D00088EE93E035D19498A6E30C9105FB81E07D
:1001E0000EF080E08F93AAE60D911C91003050E054
:1001F000150781E009F080E09F918923882309F4A5
:100200000AC0949A86E490E0AAE68D939C9388EEC7
:1002100093E016D19498A6E30C9106FB81E00EF0D2
:1002200080E08F93ACE60D911C91003050E01507F3
:1002300081E009F080E09F918923882309F40AC0B6
:10024000949A86E490E0ACE68D939C9388EE93E0DC
:10025000F7D09498A6E30C9107FB81E00EF080E0C4
:100260008F93AEE60D911C91003050E0150781E0B0
:1002700009F080E09F918923882309F40AC0949AA9
:1002800086E490E0AEE68D939C9388EE93E0D8D020
:100290009498B09B05C086E490E0A0E68D939C9373
:1002A000B19B05C086E490E0A2E68D939C93B29B3F
:1002B00005C086E490E0A4E68D939C93B39B05C0B3
:1002C00086E490E0A6E68D939C93B49B05C086E4FB
:1002D00090E0A8E68D939C93B59B05C086E490E0E2
:1002E000AAE68D939C93B69B05C086E490E0ACE6AD
:1002F0008D939C93B79B05C086E490E0AEE68D930A
:100300009C93A0E60D911C91003050E0150714F06D
:1003100009F001C008C0A0E60D911C9101501040E9
:10032000A0E60D931C93A2E60D911C91003050E0C5
:10033000150714F009F001C008C0A2E60D911C9148
:1003400001501040A2E60D931C93A4E60D911C9160
:10035000003050E0150714F009F001C008C0A4E611
:100360000D911C9101501040A4E60D931C93A6E63C
:100370000D911C91003050E0150714F009F001C0F8
:1003800008C0A6E60D911C9101501040A6E60D9301
:100390001C93A8E60D911C91003050E0150714F055
:1003A00009F001C008C0A8E60D911C910150104051
:1003B000A8E60D931C93AAE60D911C91003050E025
:1003C000150714F009F001C008C0AAE60D911C91B0
:1003D00001501040AAE60D931C93ACE60D911C91C0
:1003E000003050E0150714F009F001C008C0ACE679
:1003F0000D911C9101501040ACE60D931C93AEE69C
:100400000D911C91003050E0150714F009F001C067
:1004100008C0AEE60D911C9101501040AEE60D9360
:100420001C9384E690E00CD03CCEF894FFCF31973B
:10043000F1F70895689462F80895E89462F80895D1
:10044000EF93FF93EE27E82BE92B31F0E8EEF3E092
:0E0450003197F1F70197D1F7FF91EF910895E1
:00000001FF
